:100000000C942A000C940C070C9435070C945E0792
:100010000C9447000C9447000C9447000C94470044
:100020000C9447000C9447000C94D2070C944700A2
:100030000C9447000C942B080C9452080C94470025
:100040000C94F0050C9447000C9447000C94470066
:100050000C94470011241FBECFE5D8E0DEBFCDBF12
:1000600012E0A0E6B0E0E8E5F1E102C005900D92F3
:10007000AE31B107D9F722E0AEE1B2E001C01D9286
:10008000AE32B207E1F70E9479050C94AA080C94ED
:1000900000000E949E0481E690E00E94DA030E9424
:1000A000390580931F0260E081E00E94ED0381E743
:1000B00090E00E94DA030E94390580931E0260914D
:1000C0001E0270E080E090E00E94F90340911E0261
:1000D00060EA88E20E94A20480916000803321F4EB
:1000E00081E38093600008950E949E0480E890E080
:1000F0000E94DA0360911F0270E080E090E00E94AD
:10010000F90360E081E00E94ED038CE890E00E943A
:10011000DA0360911E0270E080E090E00E94F90333
:100120002FEF84E39CE0215080409040E1F700C035
:10013000000090911F0280911E028917E0F00E943A
:100140009E0467E080E00E94ED0387E990E00E9452
:10015000DA0360E081E00E94ED0380EA90E00E9413
:10016000DA032FEF84E39CE0215080409040E1F7D8
:1001700000C0000026C040911F0260EA82E20E9497
:10018000A2042FEF80E792E0215080409040E1F7F9
:1001900000C0000040911E0260EA80E10E94A204BB
:1001A0000E949E0480EB90E00E94DA032FEF84E32C
:1001B0009CE0215080409040E1F700C000000E9488
:1001C0009E0490911F0280911E02891708F061CF52
:1001D0000895CF93DF9360EA82E20E94C104D82F92
:1001E00060EA88E20E94C104C82F0E949E048FEB3F
:1001F00090E00E94DA036D2F70E080E090E00E94B2
:10020000F9032FE788E391E0215080409040E1F727
:1002100000C0000060E081E00E94ED038BEC90E004
:100220000E94DA036C2F70E080E090E00E94F903F6
:100230002FEF89E698E1215080409040E1F700C01F
:1002400000000E949E04DF91CF91089580E3809387
:100250006000089586ED90E00E9418080E9414083E
:1002600087EE90E00E9418080E94140883E091E055
:100270000E9418080E9414080E949E0462E080E018
:100280000E94ED038AE191E00E94DA0362E081E0DE
:100290000E94ED038AE291E00E94DA032FEF82E5EB
:1002A00097E0215080409040E1F700C000000E949C
:1002B0009E0462E080E00E94ED038BE391E00E94E7
:1002C000DA0360E081E00E94ED038CE491E00E949B
:1002D000DA032FEF82E597E0215080409040E1F76C
:1002E00000C000000E949E0408950E949E0460E0E9
:1002F00080E00E94ED0380E691E00E94DA0360E076
:1003000081E00E94ED0389E691E00E94DA030E94F9
:10031000DD048F3F61F38B3291F40E949E048FE7DE
:1003200091E00E94DA032FEF80E792E021508040B5
:100330009040E1F700C000000E94DD0426C08D322D
:10034000A9F40E949E0460E080E00E94ED0380E634
:1003500091E00E94DA0360E081E00E94ED0384E90D
:1003600091E00E94DA030E94DD040FC0813319F48A
:10037000809360000895823319F48093600008959B
:10038000833319F48093600008950E94DD048F3F49
:10039000E1F3833609F0ABCF08950E94D0070895AA
:1003A0000E94AC070E94C4030E9487070E94BA07FC
:1003B0000E94F8060E94FB070E94B10586E291E0C8
:1003C0000E94020780E00E94CD0166E081E00E9469
:1003D0006C0565E081E00E946C0564E081E00E94AC
:1003E0006C050E9432030895FF920F931F93CF93E1
:1003F000DF9300D0CDB7DEB71A821982BE016F5FDE
:100400007F4F80E00E94C70529813A81A8E8B3E1C7
:100410000E949B08272F382F492F5527ADECBCECA5
:100420000E949B08969587959695879596958795B2
:10043000F82E8C01112760EA70E082E290E00E94C1
:10044000C104801791070CF04AC064E081E00E946B
:100450006C0565E081E00E946C058FEF0E94CD0184
:1004600066E081E00E945F0541E061E080E00E947B
:100470001C062FE788E391E0215080409040E1F78F
:1004800000C000000E949E0460E080E00E94ED0336
:1004900089EA91E00E94DA036F2D70E080E090E03D
:1004A0000E94F90360E081E00E94ED0385EE91E097
:1004B0000E94DA0366E081E00E94ED0380EB91E0A8
:1004C0000E94DA032FEF84E39CE0215080409040AB
:1004D000E1F700C0000081E08093210297C060EA4C
:1004E00070E088E290E00E94C104801791070CF050
:1004F00047C060EA70E082E290E00E94C104801789
:100500009107F4F164E081E00E946C0566E081E00F
:100510000E946C050E94320380E80E94CD0165E0D4
:1005200081E00E945F050E949E0460E080E00E94DE
:10053000ED0389EA91E00E94DA036F2D70E080E01C
:1005400090E00E94F90360E081E00E94ED038EEBF1
:1005500091E00E94DA0366E081E00E94ED0383EC03
:1005600091E00E94DA032FEF84E39CE02150804069
:100570009040E1F700C0000082E08093210246C075
:1005800060EA70E088E290E00E94C1048017910761
:10059000ECF166E081E00E946C0565E081E00E947C
:1005A0006C050E94320380E00E94CD0164E081E08E
:1005B0000E945F050E949E0460E080E00E94ED03BF
:1005C00089EA91E00E94DA036F2D70E080E090E00C
:1005D0000E94F90360E081E00E94ED0380ED91E06C
:1005E0000E94DA0364E081E00E94ED0384ED91E073
:1005F0000E94DA032FEF84E39CE02150804090407A
:10060000E1F700C0000083E0809321029091200276
:10061000809121029817D1F0823059F0833081F017
:100620008130A1F40E94140880EE91E00E94180825
:100630000DC00E9414088BEE91E00E94180806C0BD
:100640000E94140887EF91E00E941808809121020F
:10065000809320020F900F90DF91CF911F910F9107
:10066000FF90089540E061E080E00E941C0608953C
:10067000CF93C82F40E061E081E00E941C0640E07B
:1006800062E081E00E941C066C2F607F80E00E9487
:100690009F0641E060E081E00E941C068FEC97E03D
:1006A0000197F1F700C0000040E060E081E00E94A7
:1006B0001C068FEC97E00197F1F700C0000090E175
:1006C000C99FB001112480E00E949F0641E060E0D4
:1006D00081E00E941C068FEC97E00197F1F700C0C3
:1006E000000040E060E081E00E941C068FEC97E093
:1006F0000197F1F700C00000CF910895CF93C82F64
:1007000041E061E081E00E941C0640E062E081E09F
:100710000E941C066C2F607F80E00E949F0641E0D3
:1007200060E081E00E941C068FEC97E00197F1F7F2
:1007300000C0000040E060E081E00E941C068FECF9
:1007400097E00197F1F700C0000090E1C99FB00168
:10075000112480E00E949F0641E060E081E00E9459
:100760001C068FEC97E00197F1F700C0000040E015
:1007700060E081E00E941C068FEC97E00197F1F7A2
:1007800000C00000CF9108952FEF89EF90E0215035
:1007900080409040E1F700C0000082E00E943803F2
:1007A00088E20E9438038CE00E94380381E00E94B6
:1007B000380308950F931F93CF938C01C0E003C0BB
:1007C0000E947E03CF5FF801EC0FF11D8081811143
:1007D000F7CFCF911F910F910895882329F0813091
:1007E00011F4605C01C060E080E8860F0E9438036D
:1007F00008954F925F926F927F928F929F92AF92E5
:10080000BF92CF92DF92EF92FF920F931F93CF93FD
:10081000DF934B015C01672B682B692B19F480E394
:100820000E947E03412C512C32014394C12CD12CC7
:1008300076013FC0CC0CDD1CEE1CFF1CD701C601AD
:10084000880F991FAA1FBB1F880F991FAA1FBB1FC4
:10085000C80ED91EEA1EFB1EC501B4012AE030E015
:1008600040E050E00E947908C60ED71EE81EF91E2F
:10087000C114D104E104F10491F4440C551C661C2C
:10088000771CD301C201880F991FAA1FBB1F880FB5
:10089000991FAA1FBB1F480E591E6A1E7B1EC50149
:1008A000B4012AE030E040E050E00E9479084901BC
:1008B0005A0181149104A104B10409F0BBCF812C29
:1008C000912C540125C0C701B6012AE030E040E078
:1008D00050E00E947908022F132FD42FC52F80E3F8
:1008E000860F0E947E03C02ED12EED2EFC2EC11449
:1008F000D104E104F10461F48AE048165104610472
:10090000710430F073016201812C912C54018394A5
:10091000C814D904EA04FB04B1F6DF91CF911F910A
:100920000F91FF90EF90DF90CF90BF90AF909F908E
:100930008F907F906F905F904F90089581E00E941C
:10094000380308951F93CF93DF93D82F162FC42F0A
:100950000E948B070E949107812F0E949A078D2F7A
:100960000E949A078C2F0E949A070E9497078FE295
:1009700095E70197F1F700C00000DF91CF911F913B
:100980000895CF93DF93D82FC62F0E9491078C2F05
:100990000E949A078D2F0E949A070E9491078C2F20
:1009A00081600E949A0780E00E94A107C82F0E94E0
:1009B00097078C2FDF91CF910895CF92DF92EF921E
:1009C000FF920F931F93CF93DF931F92CDB7DEB7A4
:1009D00000E041C0C02ED12CF601E65EFD4F40E0A4
:1009E000608182E00E941C0610E02AC0E12EF12CFA
:1009F000F701EA5EFD4FAE014F5F5F4F608183E01C
:100A00000E94B506998191111AC00AC0AE014F5FCC
:100A10005F4FF701EA5EFD4F608183E00E94B506FB
:100A20008981882399F3C701880F991F880F991F1F
:100A30008A5F9D4FFC01EC0DFD1D808110C01F5F82
:100A40001430A0F2F601E65EFD4F41E0608182E0E5
:100A50000E941C060F5F043008F4BCCF8FEF0F908C
:100A6000DF91CF911F910F91FF90EF90DF90CF908A
:100A70000895CF93DF93D0E06D2F70E080E090E099
:100A80000E94F90380916000803399F00E94DD0498
:100A9000C82F8F3FB9F38D3371F0DD0F8D2F880F85
:100AA000880FD80FDC0FD0530E949E04CD3321F75E
:100AB00003C080E001C08D2FDF91CF910895683091
:100AC00038F4843038F441E00E941C0680E0089538
:100AD00081E0089581E00895683038F4843038F476
:100AE00040E00E941C0680E0089581E0089581E0C6
:100AF00008950E94D0010E942A01809160008133F4
:100B000071F018F4803331F0F8CF823391F08333F1
:100B100019F1F3CF0E947501F0CF0E94F40180918A
:100B200060008133D1F3E9CF0E94490080E38093D4
:100B30006000809160008233B9F3DFCF0E94E9004A
:100B40002FEF80E792E0215080409040E1F700C015
:100B5000000080E38093600080916000833371F334
:100B6000CCCF87B1806487B987B18F7787B987B1D8
:100B7000806287B986B1846086B986B1826086B9A1
:100B800086B1816086B986B1806886B9089597B1CB
:100B9000907E97B997B1892B87B986B1806486B961
:100BA00080E090E0DC0103C00196A11DB11D3499E5
:100BB00006C0803523EC9207A105B105A9F7803561
:100BC000934CA105B10551F086B1806186B985B11C
:100BD00090E0FB019183808380E0089581E0089597
:100BE0001F920F920FB60F9211242F933F934F93A2
:100BF0005F936F937F938F939F93AF93BF93EF9385
:100C0000FF9385B1E0E0F0E090E091838083099567
:100C100086B1877F86B9FF91EF91BF91AF919F9188
:100C20008F917F916F915F914F913F912F910F9095
:100C30000FBE0F901F901895683008F078C04111D2
:100C40003CC0813099F028F08230E9F0833041F1E6
:100C500070C02BB381E090E002C0880F991F6A95A5
:100C6000E2F7809582238BBB80E0089528B381E072
:100C700090E002C0880F991F6A95E2F78095822361
:100C800088BB80E0089525B381E090E002C0880F22
:100C9000991F6A95E2F78095822385BB80E00895CD
:100CA00022B381E090E002C0880F991F6A95E2F7B5
:100CB0008095822382BB80E008954130E1F5813048
:100CC00091F028F08230D9F0833029F136C02BB36F
:100CD00081E090E002C0880F991F6A95E2F7822BAD
:100CE0008BBB80E0089528B381E090E002C0880FBC
:100CF000991F6A95E2F7822B88BB80E0089525B39F
:100D000081E090E002C0880F991F6A95E2F7822B7C
:100D100085BB80E0089522B381E090E002C0880F97
:100D2000991F6A95E2F7822B82BB80E0089580E0EC
:100D3000089581E0089581E0089581E0089581306B
:100D400049F028F0823049F0833051F00CC06BBB81
:100D500080E0089568BB80E0089565BB80E0089559
:100D600062BB80E0089581E0089541155105D1F1FD
:100D70006830D0F5813091F028F08230D9F083309E
:100D800029F134C089B390E002C0959587956A95A2
:100D9000E2F78170FA01808380E0089586B390E0E5
:100DA00002C0959587956A95E2F78170FA01808374
:100DB00080E0089583B390E002C0959587956A9589
:100DC000E2F78170FA01808380E0089580B390E0BB
:100DD00002C0959587956A95E2F78170FA01808344
:100DE00080E0089581E0089581E0089581E008950C
:100DF00085B78E7F85BF85B7826085BF8BB78064DE
:100E00008BBF0895009731F09093270280932602BC
:100E100080E0089582E008951F920F920FB60F921E
:100E200011242F933F934F935F936F937F938F93EF
:100E30009F93AF93BF93EF93FF93E0912602F091BE
:100E40002702309709F00995FF91EF91BF91AF917B
:100E50009F918F917F916F915F914F913F912F91D2
:100E60000F900FBE0F901F9018951F920F920FB604
:100E70000F9211242F933F934F935F936F937F9320
:100E80008F939F93AF93BF93EF93FF93E0912402CF
:100E9000F0912502309709F00995FF91EF91BF91EC
:100EA000AF919F918F917F916F915F914F913F9102
:100EB0002F910F900FBE0F901F9018951F920F92B9
:100EC0000FB60F9211242F933F934F935F936F931D
:100ED0007F938F939F93AF93BF93EF93FF93E09193
:100EE0002202F0912302309709F00995FF91EF91CA
:100EF000BF91AF919F918F917F916F915F914F9132
:100F00003F912F910F900FBE0F901F9018958FB7A4
:100F100080688FBF089511B888E080B984E086BFEB
:100F2000089584EA86BF06B607FEFDCF089584E9DA
:100F300086BF089583B984E886BF06B607FEFDCF55
:100F4000089520E4829FC0011124846886BF06B6FC
:100F500007FEFDCF83B1089582EF8ABB8FEF87BB79
:100F60008BEF84BB82E081BB8BBB18BA15BA84EFD0
:100F700082BB089583B7806483BF83B7886083BFD3
:100F800083B7806283BF83B78F7E83BF83B78E7F33
:100F900083BF83B7826083BF83B78B7F83BF08958E
:100FA0008CBF08951F920F920FB60F9211242F93AA
:100FB0003F934F935F936F937F938F939F93AF93E1
:100FC000BF93EF93FF93E0912802F09129023097AD
:100FD00009F00995FF91EF91BF91AF919F918F918A
:100FE0007F916F915F914F913F912F910F900FBE25
:100FF0000F901F9018958AB18B7F8AB986E880BDC3
:1010000010BC87E689B98AB180618AB98AB18860E3
:101010008AB98AB18F778AB98AB18F7D8AB90895E2
:101020005D9BFECF8CB908958DE00E941008089555
:101030000F931F93CF938C01C0E003C00E94100850
:10104000CF5FF801EC0FF11D80818111F7CFCF91B7
:101050001F910F9108951F920F920FB60F921124B6
:101060002F933F934F935F936F937F938F939F93B0
:10107000AF93BF93EF93FF93E0912A02F0912B027D
:101080000995FF91EF91BF91AF919F918F917F91C2
:101090006F915F914F913F912F910F900FBE0F90E5
:1010A0001F9018951F920F920FB60F9211242F9335
:1010B0003F934F935F936F937F938F939F93AF93E0
:1010C000BF93EF93FF93E0912C02F0912D020995CD
:1010D000FF91EF91BF91AF919F918F917F916F9110
:1010E0005F914F913F912F910F900FBE0F901F90E6
:1010F0001895A1E21A2EAA1BBB1BFD010DC0AA1F49
:10110000BB1FEE1FFF1FA217B307E407F50720F070
:10111000A21BB30BE40BF50B661F771F881F991FEB
:101120001A9469F760957095809590959B01AC0134
:10113000BD01CF010895A29FB001B39FC001A39F3D
:10114000700D811D1124911DB29F700D811D112400
:08115000911D0895F894FFCFF2
:1011580030454E54455220484947482054454D5043
:1011680000454E544552204C4F572054454D500091
:10117800484947485F54454D503D20004C4F575F04
:1011880054454D503D20002057524F4E47212000D6
:10119800454E54455220545F48203E20545F4C0031
:1011A80053544F52452053554343535345530054CA
:1011B800454D505F484947483D200054454D505FD4
:1011C8004C4F573D20004E54495F4156525F505294
:1011D8004F4A454354490054454D50455241545592
:1011E800524520434F4E54524F4C20535953544567
:1011F8004D2000756E5F737020454E472F4D6F6808
:10120800616D65642074616861004E54495F4156A0
:10121800525F50524F4A45435400454E473A4D6835
:101228006D6F75645F48616D65640054454D505F2E
:101238004354524C5F53595354454D0073705F45A6
:101248004E472F4D6F68616D65645F54616861003A
:10125800312D20535441525400322D20454E5445CF
:10126800525F4E45575F48264C5F54454D500033FA
:101278002D2053484F572043555245454E5420542E
:10128800454D5000322D454E5445525F4E45575FEF
:1012980048264C5F54454D5000545F2A633D20005A
:1012A80046616E53706565642031303025004E4FBD
:1012B800524D0046616E53706565642035302500D7
:1012C8004C4F570046616E537065656420302500A9
:1012D800464952455F414C41524D004E4F52414D97
:1012E8004C5F4D4F4445004C4F575F54454D50524D
:1012F8004154555245003738392F3435362A313262
:0E130800332D63303D2B040506070405060750
:00000001FF
